{
  "_format": "hh-sol-artifact-1",
  "contractName": "YIDFactory",
  "sourceName": "contracts/YIDFactory.sol",
  "abi": [
    {
      "inputs": [],
      "stateMutability": "nonpayable",
      "type": "constructor"
    },
    {
      "inputs": [
        {
          "internalType": "address",
          "name": "owner",
          "type": "address"
        }
      ],
      "name": "OwnableInvalidOwner",
      "type": "error"
    },
    {
      "inputs": [
        {
          "internalType": "address",
          "name": "account",
          "type": "address"
        }
      ],
      "name": "OwnableUnauthorizedAccount",
      "type": "error"
    },
    {
      "anonymous": false,
      "inputs": [
        {
          "indexed": true,
          "internalType": "address",
          "name": "previousOwner",
          "type": "address"
        },
        {
          "indexed": true,
          "internalType": "address",
          "name": "newOwner",
          "type": "address"
        }
      ],
      "name": "OwnershipTransferred",
      "type": "event"
    },
    {
      "anonymous": false,
      "inputs": [
        {
          "indexed": true,
          "internalType": "address",
          "name": "user",
          "type": "address"
        },
        {
          "indexed": true,
          "internalType": "address",
          "name": "contractAddress",
          "type": "address"
        },
        {
          "indexed": false,
          "internalType": "string",
          "name": "name",
          "type": "string"
        }
      ],
      "name": "UserContractDeployed",
      "type": "event"
    },
    {
      "inputs": [
        {
          "internalType": "uint256",
          "name": "",
          "type": "uint256"
        }
      ],
      "name": "allContracts",
      "outputs": [
        {
          "internalType": "address",
          "name": "",
          "type": "address"
        }
      ],
      "stateMutability": "view",
      "type": "function"
    },
    {
      "inputs": [
        {
          "internalType": "string",
          "name": "_name",
          "type": "string"
        },
        {
          "internalType": "string",
          "name": "_email",
          "type": "string"
        }
      ],
      "name": "deployUserContract",
      "outputs": [
        {
          "internalType": "address",
          "name": "contractAddress",
          "type": "address"
        }
      ],
      "stateMutability": "nonpayable",
      "type": "function"
    },
    {
      "inputs": [],
      "name": "getAllContracts",
      "outputs": [
        {
          "internalType": "address[]",
          "name": "contracts",
          "type": "address[]"
        }
      ],
      "stateMutability": "view",
      "type": "function"
    },
    {
      "inputs": [],
      "name": "getContractCount",
      "outputs": [
        {
          "internalType": "uint256",
          "name": "count",
          "type": "uint256"
        }
      ],
      "stateMutability": "view",
      "type": "function"
    },
    {
      "inputs": [
        {
          "internalType": "address",
          "name": "_user",
          "type": "address"
        }
      ],
      "name": "getUserContract",
      "outputs": [
        {
          "internalType": "address",
          "name": "contractAddress",
          "type": "address"
        }
      ],
      "stateMutability": "view",
      "type": "function"
    },
    {
      "inputs": [
        {
          "internalType": "address",
          "name": "_user",
          "type": "address"
        }
      ],
      "name": "hasUserContract",
      "outputs": [
        {
          "internalType": "bool",
          "name": "hasContract",
          "type": "bool"
        }
      ],
      "stateMutability": "view",
      "type": "function"
    },
    {
      "inputs": [],
      "name": "owner",
      "outputs": [
        {
          "internalType": "address",
          "name": "",
          "type": "address"
        }
      ],
      "stateMutability": "view",
      "type": "function"
    },
    {
      "inputs": [],
      "name": "renounceOwnership",
      "outputs": [],
      "stateMutability": "nonpayable",
      "type": "function"
    },
    {
      "inputs": [],
      "name": "totalContracts",
      "outputs": [
        {
          "internalType": "uint256",
          "name": "",
          "type": "uint256"
        }
      ],
      "stateMutability": "view",
      "type": "function"
    },
    {
      "inputs": [
        {
          "internalType": "address",
          "name": "newOwner",
          "type": "address"
        }
      ],
      "name": "transferOwnership",
      "outputs": [],
      "stateMutability": "nonpayable",
      "type": "function"
    },
    {
      "inputs": [
        {
          "internalType": "address",
          "name": "",
          "type": "address"
        }
      ],
      "name": "userContracts",
      "outputs": [
        {
          "internalType": "address",
          "name": "",
          "type": "address"
        }
      ],
      "stateMutability": "view",
      "type": "function"
    }
  ],
  "bytecode": "0x608060405234801561001057600080fd5b50338061003757604051631e4fbdf760e01b81526000600482015260240160405180910390fd5b61004081610046565b50610096565b600080546001600160a01b038381166001600160a01b0319831681178455604051919092169283917f8be0079c531659141344cd1fd0a4f28419497f9722a3daafe3b4186f6b6457e09190a35050565b611356806100a56000396000f3fe60806040523480156200001157600080fd5b5060043610620000b75760003560e01c80638da5cb5b116200007a5780638da5cb5b146200019b5780639399869d14620001ad578063a09037a914620001c0578063bc14b36c14620001ca578063e54e26b914620001e1578063f2fde38b14620001f857600080fd5b80630687b78514620000bc57806318d3ce961462000105578063715018a6146200011e5780637809b9f1146200012a5780637e6c75f2146200016c575b600080fd5b620000e8620000cd36600462000504565b6001602052600090815260409020546001600160a01b031681565b6040516001600160a01b0390911681526020015b60405180910390f35b6200010f6200020f565b604051620000fc919062000536565b6200012862000273565b005b6200015b6200013b36600462000504565b6001600160a01b0390811660009081526001602052604090205416151590565b6040519015158152602001620000fc565b620000e86200017d36600462000504565b6001600160a01b039081166000908152600160205260409020541690565b6000546001600160a01b0316620000e8565b6003545b604051908152602001620000fc565b620001b160035481565b620000e8620001db36600462000630565b6200028b565b620000e8620001f23660046200069b565b62000408565b620001286200020936600462000504565b62000433565b606060028054806020026020016040519081016040528092919081815260200182805480156200026957602002820191906000526020600020905b81546001600160a01b031681526001909101906020018083116200024a575b5050505050905090565b6200027d62000477565b620002896000620004a6565b565b336000908152600160205260408120546001600160a01b031615620002f75760405162461bcd60e51b815260206004820152601b60248201527f5573657220616c726561647920686173206120636f6e7472616374000000000060448201526064015b60405180910390fd5b600083836040516200030990620004f6565b62000316929190620006fd565b604051809103906000f08015801562000333573d6000803e3d6000fd5b50336000908152600160208190526040822080546001600160a01b0385166001600160a01b0319918216811790925560028054938401815584527f405787fa12a823e0f2b7631cc41b3ba8828b3321ca811111fa75cd3aa3bb5ace90920180549092161790556003805492945084935090620003af836200072f565b9190505550816001600160a01b0316336001600160a01b03167fcc330fcab9aa8772d63a5653b6c349164676fa9a036f8ca9a8c68cdfd8c0af4086604051620003f9919062000757565b60405180910390a35092915050565b600281815481106200041957600080fd5b6000918252602090912001546001600160a01b0316905081565b6200043d62000477565b6001600160a01b0381166200046957604051631e4fbdf760e01b815260006004820152602401620002ee565b6200047481620004a6565b50565b6000546001600160a01b03163314620002895760405163118cdaa760e01b8152336004820152602401620002ee565b600080546001600160a01b038381166001600160a01b0319831681178455604051919092169283917f8be0079c531659141344cd1fd0a4f28419497f9722a3daafe3b4186f6b6457e09190a35050565b610bb4806200076d83390190565b6000602082840312156200051757600080fd5b81356001600160a01b03811681146200052f57600080fd5b9392505050565b6020808252825182820181905260009190848201906040850190845b81811015620005795783516001600160a01b03168352928401929184019160010162000552565b50909695505050505050565b634e487b7160e01b600052604160045260246000fd5b600082601f830112620005ad57600080fd5b813567ffffffffffffffff80821115620005cb57620005cb62000585565b604051601f8301601f19908116603f01168101908282118183101715620005f657620005f662000585565b816040528381528660208588010111156200061057600080fd5b836020870160208301376000602085830101528094505050505092915050565b600080604083850312156200064457600080fd5b823567ffffffffffffffff808211156200065d57600080fd5b6200066b868387016200059b565b935060208501359150808211156200068257600080fd5b5062000691858286016200059b565b9150509250929050565b600060208284031215620006ae57600080fd5b5035919050565b6000815180845260005b81811015620006dd57602081850181015186830182015201620006bf565b506000602082860101526020601f19601f83011685010191505092915050565b604081526000620007126040830185620006b5565b8281036020840152620007268185620006b5565b95945050505050565b6000600182016200075057634e487b7160e01b600052601160045260246000fd5b5060010190565b6020815260006200052f6020830184620006b556fe60806040523480156200001157600080fd5b5060405162000bb438038062000bb48339810160408190526200003491620001b3565b33806200005b57604051631e4fbdf760e01b81526000600482015260240160405180910390fd5b62000066816200009e565b506001620000758382620002ac565b506002620000848282620002ac565b50506003805460ff19166001179055504260045562000378565b600080546001600160a01b038381166001600160a01b0319831681178455604051919092169283917f8be0079c531659141344cd1fd0a4f28419497f9722a3daafe3b4186f6b6457e09190a35050565b634e487b7160e01b600052604160045260246000fd5b600082601f8301126200011657600080fd5b81516001600160401b0380821115620001335762000133620000ee565b604051601f8301601f19908116603f011681019082821181831017156200015e576200015e620000ee565b816040528381526020925086838588010111156200017b57600080fd5b600091505b838210156200019f578582018301518183018401529082019062000180565b600093810190920192909252949350505050565b60008060408385031215620001c757600080fd5b82516001600160401b0380821115620001df57600080fd5b620001ed8683870162000104565b935060208501519150808211156200020457600080fd5b50620002138582860162000104565b9150509250929050565b600181811c908216806200023257607f821691505b6020821081036200025357634e487b7160e01b600052602260045260246000fd5b50919050565b601f821115620002a757600081815260208120601f850160051c81016020861015620002825750805b601f850160051c820191505b81811015620002a3578281556001016200028e565b5050505b505050565b81516001600160401b03811115620002c857620002c8620000ee565b620002e081620002d984546200021d565b8462000259565b602080601f831160018114620003185760008415620002ff5750858301515b600019600386901b1c1916600185901b178555620002a3565b600085815260208120601f198616915b82811015620003495788860151825594840194600190910190840162000328565b5085821015620003685787850151600019600388901b60f8161c191681555b5050505050600190811b01905550565b61082c80620003886000396000f3fe608060405234801561001057600080fd5b506004361061009e5760003560e01c8063820e93f511610066578063820e93f5146101085780638da5cb5b14610110578063cf09e0d01461012b578063dd4a242514610142578063f2fde38b1461015557600080fd5b806306fdde03146100a357806322f3e2d4146100c157806351b42b00146100de5780635d8d1585146100e8578063715018a614610100575b600080fd5b6100ab610168565b6040516100b891906104fc565b60405180910390f35b6003546100ce9060ff1681565b60405190151581526020016100b8565b6100e66101f6565b005b6100f0610233565b6040516100b89493929190610516565b6100e6610376565b6100ab61038a565b6000546040516001600160a01b0390911681526020016100b8565b61013460045481565b6040519081526020016100b8565b6100e66101503660046105f2565b610397565b6100e6610163366004610656565b6103f6565b600180546101759061067f565b80601f01602080910402602001604051908101604052809291908181526020018280546101a19061067f565b80156101ee5780601f106101c3576101008083540402835291602001916101ee565b820191906000526020600020905b8154815290600101906020018083116101d157829003601f168201915b505050505081565b6101fe610439565b6003805460ff191690556040517fe95fc870b7b409272f884a7c18662f31e67ac75a71f9696c7df102662175556d90600090a1565b60608060008060016002600360009054906101000a900460ff1660045483805461025c9061067f565b80601f01602080910402602001604051908101604052809291908181526020018280546102889061067f565b80156102d55780601f106102aa576101008083540402835291602001916102d5565b820191906000526020600020905b8154815290600101906020018083116102b857829003601f168201915b505050505093508280546102e89061067f565b80601f01602080910402602001604051908101604052809291908181526020018280546103149061067f565b80156103615780601f1061033657610100808354040283529160200191610361565b820191906000526020600020905b81548152906001019060200180831161034457829003601f168201915b50505050509250935093509350935090919293565b61037e610439565b6103886000610466565b565b600280546101759061067f565b61039f610439565b60016103ab8382610708565b5060026103b88282610708565b507f737225f579161db636372a077837786804e50b182056ccd6992a18a6c56162de82826040516103ea9291906107c8565b60405180910390a15050565b6103fe610439565b6001600160a01b03811661042d57604051631e4fbdf760e01b8152600060048201526024015b60405180910390fd5b61043681610466565b50565b6000546001600160a01b031633146103885760405163118cdaa760e01b8152336004820152602401610424565b600080546001600160a01b038381166001600160a01b0319831681178455604051919092169283917f8be0079c531659141344cd1fd0a4f28419497f9722a3daafe3b4186f6b6457e09190a35050565b6000815180845260005b818110156104dc576020818501810151868301820152016104c0565b506000602082860101526020601f19601f83011685010191505092915050565b60208152600061050f60208301846104b6565b9392505050565b60808152600061052960808301876104b6565b828103602084015261053b81876104b6565b941515604084015250506060015292915050565b634e487b7160e01b600052604160045260246000fd5b600082601f83011261057657600080fd5b813567ffffffffffffffff808211156105915761059161054f565b604051601f8301601f19908116603f011681019082821181831017156105b9576105b961054f565b816040528381528660208588010111156105d257600080fd5b836020870160208301376000602085830101528094505050505092915050565b6000806040838503121561060557600080fd5b823567ffffffffffffffff8082111561061d57600080fd5b61062986838701610565565b9350602085013591508082111561063f57600080fd5b5061064c85828601610565565b9150509250929050565b60006020828403121561066857600080fd5b81356001600160a01b038116811461050f57600080fd5b600181811c9082168061069357607f821691505b6020821081036106b357634e487b7160e01b600052602260045260246000fd5b50919050565b601f82111561070357600081815260208120601f850160051c810160208610156106e05750805b601f850160051c820191505b818110156106ff578281556001016106ec565b5050505b505050565b815167ffffffffffffffff8111156107225761072261054f565b61073681610730845461067f565b846106b9565b602080601f83116001811461076b57600084156107535750858301515b600019600386901b1c1916600185901b1785556106ff565b600085815260208120601f198616915b8281101561079a5788860151825594840194600190910190840161077b565b50858210156107b85787850151600019600388901b60f8161c191681555b5050505050600190811b01905550565b6040815260006107db60408301856104b6565b82810360208401526107ed81856104b6565b9594505050505056fea2646970667358221220f63dba278bea8a953b86ba8792775cf8d6e486698f9cbc914db330e11033264364736f6c63430008140033a26469706673582212202ca7a863059efde0e34a8bb4b14864fd18232e42f9203a075d290d8a69bedceb64736f6c63430008140033",
  "linkReferences": {},
  "deployedLinkReferences": {}
}