{
  "_format": "hh-sol-artifact-1",
  "contractName": "YIDUser",
  "sourceName": "contracts/YIDUser.sol",
  "abi": [
    {
      "inputs": [
        {
          "internalType": "string",
          "name": "_name",
          "type": "string"
        },
        {
          "internalType": "string",
          "name": "_email",
          "type": "string"
        }
      ],
      "stateMutability": "nonpayable",
      "type": "constructor"
    },
    {
      "inputs": [
        {
          "internalType": "address",
          "name": "owner",
          "type": "address"
        }
      ],
      "name": "OwnableInvalidOwner",
      "type": "error"
    },
    {
      "inputs": [
        {
          "internalType": "address",
          "name": "account",
          "type": "address"
        }
      ],
      "name": "OwnableUnauthorizedAccount",
      "type": "error"
    },
    {
      "anonymous": false,
      "inputs": [
        {
          "indexed": true,
          "internalType": "address",
          "name": "previousOwner",
          "type": "address"
        },
        {
          "indexed": true,
          "internalType": "address",
          "name": "newOwner",
          "type": "address"
        }
      ],
      "name": "OwnershipTransferred",
      "type": "event"
    },
    {
      "anonymous": false,
      "inputs": [],
      "name": "UserDeactivated",
      "type": "event"
    },
    {
      "anonymous": false,
      "inputs": [
        {
          "indexed": false,
          "internalType": "string",
          "name": "name",
          "type": "string"
        },
        {
          "indexed": false,
          "internalType": "string",
          "name": "email",
          "type": "string"
        }
      ],
      "name": "UserUpdated",
      "type": "event"
    },
    {
      "inputs": [],
      "name": "createdAt",
      "outputs": [
        {
          "internalType": "uint256",
          "name": "",
          "type": "uint256"
        }
      ],
      "stateMutability": "view",
      "type": "function"
    },
    {
      "inputs": [],
      "name": "deactivate",
      "outputs": [],
      "stateMutability": "nonpayable",
      "type": "function"
    },
    {
      "inputs": [],
      "name": "email",
      "outputs": [
        {
          "internalType": "string",
          "name": "",
          "type": "string"
        }
      ],
      "stateMutability": "view",
      "type": "function"
    },
    {
      "inputs": [],
      "name": "getUserInfo",
      "outputs": [
        {
          "internalType": "string",
          "name": "_name",
          "type": "string"
        },
        {
          "internalType": "string",
          "name": "_email",
          "type": "string"
        },
        {
          "internalType": "bool",
          "name": "_isActive",
          "type": "bool"
        },
        {
          "internalType": "uint256",
          "name": "_createdAt",
          "type": "uint256"
        }
      ],
      "stateMutability": "view",
      "type": "function"
    },
    {
      "inputs": [],
      "name": "isActive",
      "outputs": [
        {
          "internalType": "bool",
          "name": "",
          "type": "bool"
        }
      ],
      "stateMutability": "view",
      "type": "function"
    },
    {
      "inputs": [],
      "name": "name",
      "outputs": [
        {
          "internalType": "string",
          "name": "",
          "type": "string"
        }
      ],
      "stateMutability": "view",
      "type": "function"
    },
    {
      "inputs": [],
      "name": "owner",
      "outputs": [
        {
          "internalType": "address",
          "name": "",
          "type": "address"
        }
      ],
      "stateMutability": "view",
      "type": "function"
    },
    {
      "inputs": [],
      "name": "renounceOwnership",
      "outputs": [],
      "stateMutability": "nonpayable",
      "type": "function"
    },
    {
      "inputs": [
        {
          "internalType": "address",
          "name": "newOwner",
          "type": "address"
        }
      ],
      "name": "transferOwnership",
      "outputs": [],
      "stateMutability": "nonpayable",
      "type": "function"
    },
    {
      "inputs": [
        {
          "internalType": "string",
          "name": "_name",
          "type": "string"
        },
        {
          "internalType": "string",
          "name": "_email",
          "type": "string"
        }
      ],
      "name": "updateUser",
      "outputs": [],
      "stateMutability": "nonpayable",
      "type": "function"
    }
  ],
  "bytecode": "0x60806040523480156200001157600080fd5b5060405162000bb438038062000bb48339810160408190526200003491620001b3565b33806200005b57604051631e4fbdf760e01b81526000600482015260240160405180910390fd5b62000066816200009e565b506001620000758382620002ac565b506002620000848282620002ac565b50506003805460ff19166001179055504260045562000378565b600080546001600160a01b038381166001600160a01b0319831681178455604051919092169283917f8be0079c531659141344cd1fd0a4f28419497f9722a3daafe3b4186f6b6457e09190a35050565b634e487b7160e01b600052604160045260246000fd5b600082601f8301126200011657600080fd5b81516001600160401b0380821115620001335762000133620000ee565b604051601f8301601f19908116603f011681019082821181831017156200015e576200015e620000ee565b816040528381526020925086838588010111156200017b57600080fd5b600091505b838210156200019f578582018301518183018401529082019062000180565b600093810190920192909252949350505050565b60008060408385031215620001c757600080fd5b82516001600160401b0380821115620001df57600080fd5b620001ed8683870162000104565b935060208501519150808211156200020457600080fd5b50620002138582860162000104565b9150509250929050565b600181811c908216806200023257607f821691505b6020821081036200025357634e487b7160e01b600052602260045260246000fd5b50919050565b601f821115620002a757600081815260208120601f850160051c81016020861015620002825750805b601f850160051c820191505b81811015620002a3578281556001016200028e565b5050505b505050565b81516001600160401b03811115620002c857620002c8620000ee565b620002e081620002d984546200021d565b8462000259565b602080601f831160018114620003185760008415620002ff5750858301515b600019600386901b1c1916600185901b178555620002a3565b600085815260208120601f198616915b82811015620003495788860151825594840194600190910190840162000328565b5085821015620003685787850151600019600388901b60f8161c191681555b5050505050600190811b01905550565b61082c80620003886000396000f3fe608060405234801561001057600080fd5b506004361061009e5760003560e01c8063820e93f511610066578063820e93f5146101085780638da5cb5b14610110578063cf09e0d01461012b578063dd4a242514610142578063f2fde38b1461015557600080fd5b806306fdde03146100a357806322f3e2d4146100c157806351b42b00146100de5780635d8d1585146100e8578063715018a614610100575b600080fd5b6100ab610168565b6040516100b891906104fc565b60405180910390f35b6003546100ce9060ff1681565b60405190151581526020016100b8565b6100e66101f6565b005b6100f0610233565b6040516100b89493929190610516565b6100e6610376565b6100ab61038a565b6000546040516001600160a01b0390911681526020016100b8565b61013460045481565b6040519081526020016100b8565b6100e66101503660046105f2565b610397565b6100e6610163366004610656565b6103f6565b600180546101759061067f565b80601f01602080910402602001604051908101604052809291908181526020018280546101a19061067f565b80156101ee5780601f106101c3576101008083540402835291602001916101ee565b820191906000526020600020905b8154815290600101906020018083116101d157829003601f168201915b505050505081565b6101fe610439565b6003805460ff191690556040517fe95fc870b7b409272f884a7c18662f31e67ac75a71f9696c7df102662175556d90600090a1565b60608060008060016002600360009054906101000a900460ff1660045483805461025c9061067f565b80601f01602080910402602001604051908101604052809291908181526020018280546102889061067f565b80156102d55780601f106102aa576101008083540402835291602001916102d5565b820191906000526020600020905b8154815290600101906020018083116102b857829003601f168201915b505050505093508280546102e89061067f565b80601f01602080910402602001604051908101604052809291908181526020018280546103149061067f565b80156103615780601f1061033657610100808354040283529160200191610361565b820191906000526020600020905b81548152906001019060200180831161034457829003601f168201915b50505050509250935093509350935090919293565b61037e610439565b6103886000610466565b565b600280546101759061067f565b61039f610439565b60016103ab8382610708565b5060026103b88282610708565b507f737225f579161db636372a077837786804e50b182056ccd6992a18a6c56162de82826040516103ea9291906107c8565b60405180910390a15050565b6103fe610439565b6001600160a01b03811661042d57604051631e4fbdf760e01b8152600060048201526024015b60405180910390fd5b61043681610466565b50565b6000546001600160a01b031633146103885760405163118cdaa760e01b8152336004820152602401610424565b600080546001600160a01b038381166001600160a01b0319831681178455604051919092169283917f8be0079c531659141344cd1fd0a4f28419497f9722a3daafe3b4186f6b6457e09190a35050565b6000815180845260005b818110156104dc576020818501810151868301820152016104c0565b506000602082860101526020601f19601f83011685010191505092915050565b60208152600061050f60208301846104b6565b9392505050565b60808152600061052960808301876104b6565b828103602084015261053b81876104b6565b941515604084015250506060015292915050565b634e487b7160e01b600052604160045260246000fd5b600082601f83011261057657600080fd5b813567ffffffffffffffff808211156105915761059161054f565b604051601f8301601f19908116603f011681019082821181831017156105b9576105b961054f565b816040528381528660208588010111156105d257600080fd5b836020870160208301376000602085830101528094505050505092915050565b6000806040838503121561060557600080fd5b823567ffffffffffffffff8082111561061d57600080fd5b61062986838701610565565b9350602085013591508082111561063f57600080fd5b5061064c85828601610565565b9150509250929050565b60006020828403121561066857600080fd5b81356001600160a01b038116811461050f57600080fd5b600181811c9082168061069357607f821691505b6020821081036106b357634e487b7160e01b600052602260045260246000fd5b50919050565b601f82111561070357600081815260208120601f850160051c810160208610156106e05750805b601f850160051c820191505b818110156106ff578281556001016106ec565b5050505b505050565b815167ffffffffffffffff8111156107225761072261054f565b61073681610730845461067f565b846106b9565b602080601f83116001811461076b57600084156107535750858301515b600019600386901b1c1916600185901b1785556106ff565b600085815260208120601f198616915b8281101561079a5788860151825594840194600190910190840161077b565b50858210156107b85787850151600019600388901b60f8161c191681555b5050505050600190811b01905550565b6040815260006107db60408301856104b6565b82810360208401526107ed81856104b6565b9594505050505056fea2646970667358221220f63dba278bea8a953b86ba8792775cf8d6e486698f9cbc914db330e11033264364736f6c63430008140033",
  "linkReferences": {},
  "deployedLinkReferences": {}
}